{"abi":[{"type":"function","name":"create_package","inputs":[{"name":"_name","type":"string","internalType":"string"},{"name":"_dependencies","type":"string[]","internalType":"string[]"},{"name":"_description","type":"string","internalType":"string"},{"name":"_cidhash","type":"string","internalType":"string"}],"outputs":[{"name":"","type":"address","internalType":"address"}],"stateMutability":"nonpayable"},{"type":"function","name":"get_packages","inputs":[],"outputs":[{"name":"","type":"address[]","internalType":"address[]"}],"stateMutability":"view"},{"type":"function","name":"packages","inputs":[{"name":"","type":"uint256","internalType":"uint256"}],"outputs":[{"name":"","type":"address","internalType":"address"}],"stateMutability":"view"},{"type":"event","name":"packageCreated","inputs":[{"name":"sender","type":"address","indexed":false,"internalType":"address"},{"name":"packageName","type":"string","indexed":false,"internalType":"string"},{"name":"dependencyList","type":"string[]","indexed":false,"internalType":"string[]"},{"name":"description","type":"string","indexed":false,"internalType":"string"},{"name":"cidhash","type":"string","indexed":false,"internalType":"string"}],"anonymous":false}],"bytecode":{"object":"0x6080604052348015600f57600080fd5b5061236d8061001f6000396000f3fe608060405234801561001057600080fd5b50600436106100415760003560e01c80634cbc268014610046578063c216212a14610076578063dcbec68114610089575b600080fd5b610059610054366004610267565b61009e565b6040516001600160a01b0390911681526020015b60405180910390f35b610059610084366004610373565b610185565b6100916101af565b60405161006d919061038c565b600080328a8a8a8a8a8a8a8a6040516100b690610211565b6100c89998979695949392919061049b565b604051809103906000f0801580156100e4573d6000803e3d6000fd5b50600080546001810182559080527f290decd9548b62a8d60345a988386fc84ba6bc95484008f6362f93160ef3e5630180546001600160a01b0319166001600160a01b0383161790556040519091507fcb506c777d1bf20371418422e9897e1aca48b60295547785c72df9c26a5ccd94906101709032908d908d908d908d908d908d908d908d9061049b565b60405180910390a19998505050505050505050565b6000818154811061019557600080fd5b6000918252602090912001546001600160a01b0316905081565b6060600080548060200260200160405190810160405280929190818152602001828054801561020757602002820191906000526020600020905b81546001600160a01b031681526001909101906020018083116101e9575b5050505050905090565b611e2a8061050e83390190565b60008083601f84011261023057600080fd5b50813567ffffffffffffffff81111561024857600080fd5b60208301915083602082850101111561026057600080fd5b9250929050565b6000806000806000806000806080898b03121561028357600080fd5b883567ffffffffffffffff81111561029a57600080fd5b6102a68b828c0161021e565b909950975050602089013567ffffffffffffffff8111156102c657600080fd5b8901601f81018b136102d757600080fd5b803567ffffffffffffffff8111156102ee57600080fd5b8b60208260051b840101111561030357600080fd5b60209190910196509450604089013567ffffffffffffffff81111561032757600080fd5b6103338b828c0161021e565b909550935050606089013567ffffffffffffffff81111561035357600080fd5b61035f8b828c0161021e565b999c989b5096995094979396929594505050565b60006020828403121561038557600080fd5b5035919050565b602080825282518282018190526000918401906040840190835b818110156103cd5783516001600160a01b03168352602093840193909201916001016103a6565b509095945050505050565b81835281816020850137506000828201602090810191909152601f909101601f19169091010190565b60008383855260208501945060208460051b8201018360005b8681101561048f57838303601f19018852813536879003601e1901811261044057600080fd5b860160208101903567ffffffffffffffff81111561045d57600080fd5b80360382131561046c57600080fd5b6104778582846103d8565b60209a8b019a9095509390930192505060010161041a565b50909695505050505050565b6001600160a01b038a16815260a0602082018190526000906104c09083018a8c6103d8565b82810360408401526104d381898b610401565b905082810360608401526104e88187896103d8565b905082810360808401526104fd8185876103d8565b9c9b50505050505050505050505056fe608060405234801561001057600080fd5b50604051611e2a380380611e2a83398101604081905261002f91610323565b600180546001600160a01b0319166001600160a01b0387161790556000610056858261048e565b506003610063838261048e565b50600180546001600160a01b03166000908152600860209081526040808320805460ff1916851790556004849055600583815560068490556002805495860181559093528051808201909152918252640312e302e360dc1b908201527f405787fa12a823e0f2b7631cc41b3ba8828b3321ca811111fa75cd3aa3bb5ace909101906100ee908261048e565b50825160005b8181101561016257604051640312e302e360dc1b815260079060050190815260200160405180910390208582815181106101305761013061054c565b60209081029190910181015182546001810184556000938452919092200190610159908261048e565b506001016100f4565b5081600960405161017e90640312e302e360dc1b815260050190565b90815260200160405180910390209081610198919061048e565b5050600b805460ff19166001179055506105629350505050565b634e487b7160e01b600052604160045260246000fd5b604051601f8201601f191681016001600160401b03811182821017156101f0576101f06101b2565b604052919050565b600082601f83011261020957600080fd5b81516001600160401b03811115610222576102226101b2565b610235601f8201601f19166020016101c8565b81815284602083860101111561024a57600080fd5b60005b828110156102695760208186018101518383018201520161024d565b506000918101602001919091529392505050565b600082601f83011261028e57600080fd5b81516001600160401b038111156102a7576102a76101b2565b8060051b6102b7602082016101c8565b918252602081850181019290810190868411156102d357600080fd5b6020860192505b838310156103195782516001600160401b038111156102f857600080fd5b610307886020838a01016101f8565b835250602092830192909101906102da565b9695505050505050565b600080600080600060a0868803121561033b57600080fd5b85516001600160a01b038116811461035257600080fd5b60208701519095506001600160401b0381111561036e57600080fd5b61037a888289016101f8565b604088015190955090506001600160401b0381111561039857600080fd5b6103a48882890161027d565b606088015190945090506001600160401b038111156103c257600080fd5b6103ce888289016101f8565b608088015190935090506001600160401b038111156103ec57600080fd5b6103f8888289016101f8565b9150509295509295909350565b600181811c9082168061041957607f821691505b60208210810361043957634e487b7160e01b600052602260045260246000fd5b50919050565b601f82111561048957806000526020600020601f840160051c810160208510156104665750805b601f840160051c820191505b818110156104865760008155600101610472565b50505b505050565b81516001600160401b038111156104a7576104a76101b2565b6104bb816104b58454610405565b8461043f565b6020601f8211600181146104ef57600083156104d75750848201515b600019600385901b1c1916600184901b178455610486565b600084815260208120601f198516915b8281101561051f57878501518255602094850194600190920191016104ff565b508482101561053d5786840151600019600387901b60f8161c191681555b50505050600190811b01905550565b634e487b7160e01b600052603260045260246000fd5b6118b9806105716000396000f3fe6080604052600436106101355760003560e01c806387aee00e116100ab578063c3ccd74e1161006f578063c3ccd74e14610354578063d06ba78a14610374578063d82f50a61461038e578063deb2850a146103bc578063ed88c68e146103dc578063fc3aff23146103e457600080fd5b806387aee00e146102a6578063932ec411146102c6578063a6c3e6b9146102e6578063aed5474b14610306578063c1bca58e1461033657600080fd5b80633a525c29116100fd5780633a525c29146101f6578063435ad3e01461020b5780634510084e1461022b578063479ed1e91461024d57806357f6942514610271578063839d7f111461029157600080fd5b806306fdde031461013a578063072831e4146101655780631dc3a36d146101875780631dd15369146101bf5780632f2770db146101df575b600080fd5b34801561014657600080fd5b5061014f610404565b60405161015c91906110de565b60405180910390f35b34801561017157600080fd5b5061017a610492565b60405161015c9190611154565b34801561019357600080fd5b506101a76101a2366004611167565b61056b565b6040516001600160a01b03909116815260200161015c565b3480156101cb57600080fd5b5061014f6101da366004611237565b610595565b3480156101eb57600080fd5b506101f46105b9565b005b34801561020257600080fd5b5061014f610633565b34801561021757600080fd5b506101f4610226366004611274565b6106c5565b34801561023757600080fd5b506102406109a9565b60405161015c919061137c565b34801561025957600080fd5b50600b5460ff165b604051901515815260200161015c565b34801561027d57600080fd5b506101f461028c3660046113c8565b610a0a565b34801561029d57600080fd5b5061014f610af7565b3480156102b257600080fd5b5061014f6102c1366004611167565b610b06565b3480156102d257600080fd5b5061014f6102e13660046113f1565b610b31565b3480156102f257600080fd5b506001546101a7906001600160a01b031681565b34801561031257600080fd5b506102616103213660046113c8565b60086020526000908152604090205460ff1681565b34801561034257600080fd5b506001546001600160a01b03166101a7565b34801561036057600080fd5b5061017a61036f366004611436565b610b78565b34801561038057600080fd5b50600b546102619060ff1681565b34801561039a57600080fd5b506103ae6103a9366004611167565b610c73565b60405190815260200161015c565b3480156103c857600080fd5b5061014f6103d7366004611436565b610c8a565b6101f4610d3d565b3480156103f057600080fd5b506101f46103ff3660046113c8565b610dd6565b60008054610411906114aa565b80601f016020809104026020016040519081016040528092919081815260200182805461043d906114aa565b801561048a5780601f1061045f5761010080835404028352916020019161048a565b820191906000526020600020905b81548152906001019060200180831161046d57829003601f168201915b505050505081565b60606002805480602002602001604051908101604052809291908181526020016000905b828210156105625783829060005260206000200180546104d5906114aa565b80601f0160208091040260200160405190810160405280929190818152602001828054610501906114aa565b801561054e5780601f106105235761010080835404028352916020019161054e565b820191906000526020600020905b81548152906001019060200180831161053157829003601f168201915b5050505050815260200190600101906104b6565b50505050905090565b600a818154811061057b57600080fd5b6000918252602090912001546001600160a01b0316905081565b805160208183018101805160098252928201919093012091528054610411906114aa565b6001546001600160a01b031632146105ec5760405162461bcd60e51b81526004016105e3906114e4565b60405180910390fd5b600b805460ff191690556040517f7f50750ddbb838b5d272e8ee048f2d7fbf7b0194e91b993aae7c26e2f280fd0c9061062990329060009061158b565b60405180910390a1565b606060008054610642906114aa565b80601f016020809104026020016040519081016040528092919081815260200182805461066e906114aa565b80156106bb5780601f10610690576101008083540402835291602001916106bb565b820191906000526020600020905b81548152906001019060200180831161069e57829003601f168201915b5050505050905090565b3260009081526008602052604090205460ff166107245760405162461bcd60e51b815260206004820152601860248201527f4e6f7420612076616c696420636f6c6c61626f7261746f72000000000000000060448201526064016105e3565b600b5460ff166107465760405162461bcd60e51b81526004016105e3906115cf565b828015806107545750806001145b8061075f5750806002145b6107a35760405162461bcd60e51b8152602060048201526015602482015274496e76616c6964205570646174652053746174757360581b60448201526064016105e3565b836000036107d9576001600460000160008282546107c19190611625565b909155505060006005819055600460025b015561082b565b836001036108075760016004810160008282546107f69190611625565b9091555060009050600460026107d2565b8360020361082b576001600460020160008282546108259190611625565b90915550505b600061083b6004825b0154610f23565b9050600061084b60046001610834565b9050600061085b60046002610834565b9050600083838360405160200161087493929190611638565b60408051601f19818403018152919052600280546001810182556000919091529091507f405787fa12a823e0f2b7631cc41b3ba8828b3321ca811111fa75cd3aa3bb5ace016108c382826116e5565b50865160005b81811015610933576007836040516108e191906117a4565b9081526020016040518091039020898281518110610901576109016115f9565b6020908102919091018101518254600181018455600093845291909220019061092a90826116e5565b506001016108c9565b508660098360405161094591906117a4565b9081526020016040518091039020908161095f91906116e5565b507fb2ba42e9e7a4820aeccb8dfcc91dfb49e92364aa5eda65ca9edb0eedfe284d34326000848b60405161099694939291906117c0565b60405180910390a1505050505050505050565b6060600a8054806020026020016040519081016040528092919081815260200182805480156106bb57602002820191906000526020600020905b81546001600160a01b031681526001909101906020018083116109e3575050505050905090565b6001546001600160a01b03163214610a345760405162461bcd60e51b81526004016105e3906114e4565b600b5460ff16610a565760405162461bcd60e51b81526004016105e3906115cf565b600a805460018082019092557fc65a7bb8d6351c1cf70c95a316cc6a92839c986682d98bc35f958f4883f9d2a80180546001600160a01b0319166001600160a01b038416908117909155600090815260086020526040808220805460ff191690931790925590517f126c0c1cb9112bc67424ee87f5f11d2f169bf930d54b28db48e81737dec47eb591610aec9132918591611815565b60405180910390a150565b606060038054610642906114aa565b60028181548110610b1657600080fd5b906000526020600020016000915090508054610411906114aa565b81516020818401810180516007825292820191850191909120919052805482908110610b5c57600080fd5b90600052602060002001600091509150508054610411906114aa565b606060078383604051610b8c92919061184a565b9081526020016040518091039020805480602002602001604051908101604052809291908181526020016000905b82821015610c66578382906000526020600020018054610bd9906114aa565b80601f0160208091040260200160405190810160405280929190818152602001828054610c05906114aa565b8015610c525780601f10610c2757610100808354040283529160200191610c52565b820191906000526020600020905b815481529060010190602001808311610c3557829003601f168201915b505050505081526020019060010190610bba565b5050505090505b92915050565b60048160038110610c8357600080fd5b0154905081565b606060098383604051610c9e92919061184a565b90815260200160405180910390208054610cb7906114aa565b80601f0160208091040260200160405190810160405280929190818152602001828054610ce3906114aa565b8015610d305780601f10610d0557610100808354040283529160200191610d30565b820191906000526020600020905b815481529060010190602001808311610d1357829003601f168201915b5050505050905092915050565b6001546040516000916001600160a01b03169034908381818185875af1925050503d8060008114610d8a576040519150601f19603f3d011682016040523d82523d6000602084013e610d8f565b606091505b5050905080610dd35760405162461bcd60e51b815260206004820152601060248201526f4661696c656420746f20646f6e61746560801b60448201526064016105e3565b50565b6001546001600160a01b03163214610e005760405162461bcd60e51b81526004016105e3906114e4565b600b5460ff16610e225760405162461bcd60e51b81526004016105e3906115cf565b600a5460005b81811015610f1e57826001600160a01b0316600a8281548110610e4d57610e4d6115f9565b6000918252602090912001546001600160a01b031603610f1657600a610e7460018461185a565b81548110610e8457610e846115f9565b600091825260209091200154600a80546001600160a01b039092169183908110610eb057610eb06115f9565b9060005260206000200160006101000a8154816001600160a01b0302191690836001600160a01b03160217905550600a805480610eef57610eef61186d565b600082815260209020810160001990810180546001600160a01b0319169055019055505050565b600101610e28565b505050565b60606000610f3083610fb6565b600101905060008167ffffffffffffffff811115610f5057610f50611180565b6040519080825280601f01601f191660200182016040528015610f7a576020820181803683370190505b5090508181016020015b600019016f181899199a1a9b1b9c1cb0b131b232b360811b600a86061a8153600a8504945084610f8457509392505050565b60008072184f03e93ff9f4daa797ed6e38ed64bf6a1f0160401b8310610ff55772184f03e93ff9f4daa797ed6e38ed64bf6a1f0160401b830492506040015b6d04ee2d6d415b85acef81000000008310611021576d04ee2d6d415b85acef8100000000830492506020015b662386f26fc10000831061103f57662386f26fc10000830492506010015b6305f5e1008310611057576305f5e100830492506008015b612710831061106b57612710830492506004015b6064831061107d576064830492506002015b600a8310610c6d5760010192915050565b60005b838110156110a9578181015183820152602001611091565b50506000910152565b600081518084526110ca81602086016020860161108e565b601f01601f19169290920160200192915050565b6020815260006110f160208301846110b2565b9392505050565b600082825180855260208501945060208160051b8301016020850160005b8381101561114857601f198584030188526111328383516110b2565b6020988901989093509190910190600101611116565b50909695505050505050565b6020815260006110f160208301846110f8565b60006020828403121561117957600080fd5b5035919050565b634e487b7160e01b600052604160045260246000fd5b604051601f8201601f1916810167ffffffffffffffff811182821017156111bf576111bf611180565b604052919050565b600082601f8301126111d857600080fd5b813567ffffffffffffffff8111156111f2576111f2611180565b611205601f8201601f1916602001611196565b81815284602083860101111561121a57600080fd5b816020850160208301376000918101602001919091529392505050565b60006020828403121561124957600080fd5b813567ffffffffffffffff81111561126057600080fd5b61126c848285016111c7565b949350505050565b60008060006060848603121561128957600080fd5b83359250602084013567ffffffffffffffff8111156112a757600080fd5b8401601f810186136112b857600080fd5b803567ffffffffffffffff8111156112d2576112d2611180565b8060051b6112e260208201611196565b918252602081840181019290810190898411156112fe57600080fd5b6020850192505b8383101561134557823567ffffffffffffffff81111561132457600080fd5b6113338b6020838901016111c7565b83525060209283019290910190611305565b95505050506040850135905067ffffffffffffffff81111561136657600080fd5b611372868287016111c7565b9150509250925092565b602080825282518282018190526000918401906040840190835b818110156113bd5783516001600160a01b0316835260209384019390920191600101611396565b509095945050505050565b6000602082840312156113da57600080fd5b81356001600160a01b03811681146110f157600080fd5b6000806040838503121561140457600080fd5b823567ffffffffffffffff81111561141b57600080fd5b611427858286016111c7565b95602094909401359450505050565b6000806020838503121561144957600080fd5b823567ffffffffffffffff81111561146057600080fd5b8301601f8101851361147157600080fd5b803567ffffffffffffffff81111561148857600080fd5b85602082840101111561149a57600080fd5b6020919091019590945092505050565b600181811c908216806114be57607f821691505b6020821081036114de57634e487b7160e01b600052602260045260246000fd5b50919050565b6020808252600a90820152692737ba1030baba3437b960b11b604082015260600190565b60008154611515816114aa565b80855260018216801561152f576001811461154b57611582565b60ff1983166020870152602082151560051b8701019350611582565b84600052602060002060005b838110156115795781546020828a010152600182019150602081019050611557565b87016020019450505b50505092915050565b60018060a01b038316815260606020820152600c60608201526b191a5cd8dbdb9d1a5b9d595960a21b608082015260a06040820152600061126c60a0830184611508565b60208082526010908201526f141858dad859d948111a5cd8589b195960821b604082015260600190565b634e487b7160e01b600052603260045260246000fd5b634e487b7160e01b600052601160045260246000fd5b80820180821115610c6d57610c6d61160f565b6000845161164a81846020890161108e565b601760f91b908301908152845161166881600184016020890161108e565b601760f91b60019290910191820152835161168a81600284016020880161108e565b0160020195945050505050565b601f821115610f1e57806000526020600020601f840160051c810160208510156116be5750805b601f840160051c820191505b818110156116de57600081556001016116ca565b5050505050565b815167ffffffffffffffff8111156116ff576116ff611180565b6117138161170d84546114aa565b84611697565b6020601f821160018114611747576000831561172f5750848201515b600019600385901b1c1916600184901b1784556116de565b600084815260208120601f198516915b828110156117775787850151825560209485019460019092019101611757565b50848210156117955786840151600019600387901b60f8161c191681555b50505050600190811b01905550565b600082516117b681846020870161108e565b9190910192915050565b6001600160a01b03851681526080602082018190526000906117e490830186611508565b82810360408401526117f681866110b2565b9050828103606084015261180a81856110f8565b979650505050505050565b6001600160a01b0384811682528316602082015260606040820181905260009061184190830184611508565b95945050505050565b8183823760009101908152919050565b81810381811115610c6d57610c6d61160f565b634e487b7160e01b600052603160045260246000fdfea26469706673582212204aa0b3a88bfd1f254e316db295a48359aa64c095b7532863faf8ac853d5e9c2364736f6c634300081a0033a2646970667358221220c3546467c66f2b034663ec6f8393d8b7fe987873150e5d1a301e95da7974a19e64736f6c634300081a0033","linkReferences":{}},"methodIdentifiers":{"create_package(string,string[],string,string)":"4cbc2680","get_packages()":"dcbec681","packages(uint256)":"c216212a"},"id":3}