{"abi":[{"type":"constructor","inputs":[{"name":"_author","type":"address","internalType":"address payable"},{"name":"_name","type":"string","internalType":"string"},{"name":"dependencyList","type":"string[]","internalType":"string[]"}],"stateMutability":"nonpayable"},{"type":"function","name":"add_collaborator","inputs":[{"name":"collab_user","type":"address","internalType":"address"}],"outputs":[],"stateMutability":"nonpayable"},{"type":"function","name":"add_version","inputs":[{"name":"update_status","type":"uint256","internalType":"uint256"},{"name":"dependencyList","type":"string[]","internalType":"string[]"}],"outputs":[],"stateMutability":"nonpayable"},{"type":"function","name":"author","inputs":[],"outputs":[{"name":"","type":"address","internalType":"address payable"}],"stateMutability":"view"},{"type":"function","name":"collaboratorMap","inputs":[{"name":"","type":"address","internalType":"address"}],"outputs":[{"name":"","type":"bool","internalType":"bool"}],"stateMutability":"view"},{"type":"function","name":"collaborators","inputs":[{"name":"","type":"uint256","internalType":"uint256"}],"outputs":[{"name":"","type":"address","internalType":"address"}],"stateMutability":"view"},{"type":"function","name":"current_version","inputs":[{"name":"","type":"uint256","internalType":"uint256"}],"outputs":[{"name":"","type":"uint256","internalType":"uint256"}],"stateMutability":"view"},{"type":"function","name":"dependencyMap","inputs":[{"name":"","type":"string","internalType":"string"},{"name":"","type":"uint256","internalType":"uint256"}],"outputs":[{"name":"","type":"string","internalType":"string"}],"stateMutability":"view"},{"type":"function","name":"disable","inputs":[],"outputs":[],"stateMutability":"nonpayable"},{"type":"function","name":"donate","inputs":[],"outputs":[],"stateMutability":"payable"},{"type":"function","name":"get_collaborators","inputs":[],"outputs":[{"name":"","type":"address[]","internalType":"address[]"}],"stateMutability":"view"},{"type":"function","name":"get_dependencies","inputs":[{"name":"version_number","type":"string","internalType":"string"}],"outputs":[{"name":"","type":"string[]","internalType":"string[]"}],"stateMutability":"view"},{"type":"function","name":"get_name","inputs":[],"outputs":[{"name":"","type":"string","internalType":"string"}],"stateMutability":"view"},{"type":"function","name":"get_versions","inputs":[],"outputs":[{"name":"","type":"string[]","internalType":"string[]"}],"stateMutability":"view"},{"type":"function","name":"name","inputs":[],"outputs":[{"name":"","type":"string","internalType":"string"}],"stateMutability":"view"},{"type":"function","name":"packageEnabled","inputs":[],"outputs":[{"name":"","type":"bool","internalType":"bool"}],"stateMutability":"view"},{"type":"function","name":"versions","inputs":[{"name":"","type":"uint256","internalType":"uint256"}],"outputs":[{"name":"","type":"string","internalType":"string"}],"stateMutability":"view"},{"type":"event","name":"collaboratorAdded","inputs":[{"name":"sender","type":"address","indexed":false,"internalType":"address"},{"name":"addedCollaborator","type":"address","indexed":false,"internalType":"address"},{"name":"packageName","type":"string","indexed":false,"internalType":"string"}],"anonymous":false},{"type":"event","name":"packageDisabled","inputs":[{"name":"sender","type":"address","indexed":false,"internalType":"address"},{"name":"packageStatus","type":"string","indexed":false,"internalType":"string"},{"name":"packageName","type":"string","indexed":false,"internalType":"string"}],"anonymous":false},{"type":"event","name":"packageVersionUpdate","inputs":[{"name":"sender","type":"address","indexed":false,"internalType":"address"},{"name":"packageName","type":"string","indexed":false,"internalType":"string"},{"name":"version_number","type":"string","indexed":false,"internalType":"string"},{"name":"dependencyList","type":"string[]","indexed":false,"internalType":"string[]"}],"anonymous":false}],"bytecode":{"object":"0x608060405234801561001057600080fd5b506040516119d03803806119d083398101604081905261002f91610238565b600180546001600160a01b0319166001600160a01b038516179055600061005683826103de565b50600180546001600160a01b03166000908152600760209081526040808320805460ff1916851790556003849055600483905560058381556002805495860181559093528051808201909152918252640312e302e360dc1b908201527f405787fa12a823e0f2b7631cc41b3ba8828b3321ca811111fa75cd3aa3bb5ace909101906100e190826103de565b50805160005b8181101561015557604051640312e302e360dc1b815260069060050190815260200160405180910390208382815181106101235761012361049c565b6020908102919091018101518254600181018455600093845291909220019061014c90826103de565b506001016100e7565b50506009805460ff19166001179055506104b2915050565b634e487b7160e01b600052604160045260246000fd5b604051601f8201601f191681016001600160401b03811182821017156101ab576101ab61016d565b604052919050565b600082601f8301126101c457600080fd5b81516001600160401b038111156101dd576101dd61016d565b6101f0601f8201601f1916602001610183565b81815284602083860101111561020557600080fd5b60005b8281101561022457602081860181015183830182015201610208565b506000918101602001919091529392505050565b60008060006060848603121561024d57600080fd5b83516001600160a01b038116811461026457600080fd5b60208501519093506001600160401b0381111561028057600080fd5b61028c868287016101b3565b604086015190935090506001600160401b038111156102aa57600080fd5b8401601f810186136102bb57600080fd5b80516001600160401b038111156102d4576102d461016d565b8060051b6102e460208201610183565b9182526020818401810192908101908984111561030057600080fd5b6020850192505b838310156103465782516001600160401b0381111561032557600080fd5b6103348b6020838901016101b3565b83525060209283019290910190610307565b80955050505050509250925092565b600181811c9082168061036957607f821691505b60208210810361038957634e487b7160e01b600052602260045260246000fd5b50919050565b601f8211156103d957806000526020600020601f840160051c810160208510156103b65750805b601f840160051c820191505b818110156103d657600081556001016103c2565b50505b505050565b81516001600160401b038111156103f7576103f761016d565b61040b816104058454610355565b8461038f565b6020601f82116001811461043f57600083156104275750848201515b600019600385901b1c1916600184901b1784556103d6565b600084815260208120601f198516915b8281101561046f578785015182556020948501946001909201910161044f565b508482101561048d5786840151600019600387901b60f8161c191681555b50505050600190811b01905550565b634e487b7160e01b600052603260045260246000fd5b61150f806104c16000396000f3fe6080604052600436106100f35760003560e01c8063932ec4111161008a578063d06ba78a11610059578063d06ba78a146102ab578063d82f50a6146102c5578063da71a82b146102f3578063ed88c68e1461031357600080fd5b8063932ec4111461020b578063a6c3e6b91461022b578063aed5474b1461024b578063c3ccd74e1461028b57600080fd5b80633a525c29116100c65780633a525c29146101945780634510084e146101a957806357f69425146101cb57806387aee00e146101eb57600080fd5b806306fdde03146100f8578063072831e4146101235780631dc3a36d146101455780632f2770db1461017d575b600080fd5b34801561010457600080fd5b5061010d61031b565b60405161011a9190610e11565b60405180910390f35b34801561012f57600080fd5b506101386103a9565b60405161011a9190610e87565b34801561015157600080fd5b50610165610160366004610e9a565b610482565b6040516001600160a01b03909116815260200161011a565b34801561018957600080fd5b506101926104ac565b005b3480156101a057600080fd5b5061010d61053f565b3480156101b557600080fd5b506101be6105d1565b60405161011a9190610eb3565b3480156101d757600080fd5b506101926101e6366004610eff565b610632565b3480156101f757600080fd5b5061010d610206366004610e9a565b61075f565b34801561021757600080fd5b5061010d610226366004610fdf565b61078a565b34801561023757600080fd5b50600154610165906001600160a01b031681565b34801561025757600080fd5b5061027b610266366004610eff565b60076020526000908152604090205460ff1681565b604051901515815260200161011a565b34801561029757600080fd5b506101386102a6366004611024565b6107d1565b3480156102b757600080fd5b5060095461027b9060ff1681565b3480156102d157600080fd5b506102e56102e0366004610e9a565b6108cc565b60405190815260200161011a565b3480156102ff57600080fd5b5061019261030e366004611098565b6108e3565b610192610bbd565b6000805461032890611176565b80601f016020809104026020016040519081016040528092919081815260200182805461035490611176565b80156103a15780601f10610376576101008083540402835291602001916103a1565b820191906000526020600020905b81548152906001019060200180831161038457829003601f168201915b505050505081565b60606002805480602002602001604051908101604052809291908181526020016000905b828210156104795783829060005260206000200180546103ec90611176565b80601f016020809104026020016040519081016040528092919081815260200182805461041890611176565b80156104655780601f1061043a57610100808354040283529160200191610465565b820191906000526020600020905b81548152906001019060200180831161044857829003601f168201915b5050505050815260200190600101906103cd565b50505050905090565b6008818154811061049257600080fd5b6000918252602090912001546001600160a01b0316905081565b6001546001600160a01b031632146104f85760405162461bcd60e51b815260206004820152600a6024820152692737ba1030baba3437b960b11b60448201526064015b60405180910390fd5b6009805460ff191690556040517f7f50750ddbb838b5d272e8ee048f2d7fbf7b0194e91b993aae7c26e2f280fd0c90610535903290600090611233565b60405180910390a1565b60606000805461054e90611176565b80601f016020809104026020016040519081016040528092919081815260200182805461057a90611176565b80156105c75780601f1061059c576101008083540402835291602001916105c7565b820191906000526020600020905b8154815290600101906020018083116105aa57829003601f168201915b5050505050905090565b606060088054806020026020016040519081016040528092919081815260200182805480156105c757602002820191906000526020600020905b81546001600160a01b0316815260019091019060200180831161060b575050505050905090565b6001546001600160a01b031632146106795760405162461bcd60e51b815260206004820152600a6024820152692737ba1030baba3437b960b11b60448201526064016104ef565b60095460ff166106be5760405162461bcd60e51b815260206004820152601060248201526f141858dad859d948111a5cd8589b195960821b60448201526064016104ef565b6008805460018082019092557ff3f7a9fe364faab93b216da50a3214154f22a0a2b415b23a84c8169e8b636ee30180546001600160a01b0319166001600160a01b038416908117909155600090815260076020526040808220805460ff191690931790925590517f126c0c1cb9112bc67424ee87f5f11d2f169bf930d54b28db48e81737dec47eb591610754913291859161127f565b60405180910390a150565b6002818154811061076f57600080fd5b90600052602060002001600091509050805461032890611176565b815160208184018101805160068252928201918501919091209190528054829081106107b557600080fd5b9060005260206000200160009150915050805461032890611176565b6060600683836040516107e59291906112b4565b9081526020016040518091039020805480602002602001604051908101604052809291908181526020016000905b828210156108bf57838290600052602060002001805461083290611176565b80601f016020809104026020016040519081016040528092919081815260200182805461085e90611176565b80156108ab5780601f10610880576101008083540402835291602001916108ab565b820191906000526020600020905b81548152906001019060200180831161088e57829003601f168201915b505050505081526020019060010190610813565b5050505090505b92915050565b600381600381106108dc57600080fd5b0154905081565b3260009081526007602052604090205460ff166109425760405162461bcd60e51b815260206004820152601860248201527f4e6f7420612076616c696420636f6c6c61626f7261746f72000000000000000060448201526064016104ef565b60095460ff166109875760405162461bcd60e51b815260206004820152601060248201526f141858dad859d948111a5cd8589b195960821b60448201526064016104ef565b818015806109955750806001145b806109a05750806002145b6109e45760405162461bcd60e51b8152602060048201526015602482015274496e76616c6964205570646174652053746174757360581b60448201526064016104ef565b82600003610a1a57600160036000016000828254610a0291906112da565b909155505060006004819055600360025b0155610a6c565b82600103610a48576001600381016000828254610a3791906112da565b909155506000905060036002610a13565b82600203610a6c57600160036002016000828254610a6691906112da565b90915550505b6000610a7c6003825b0154610c56565b90506000610a8c60036001610a75565b90506000610a9c60036002610a75565b90506000838383604051602001610ab5939291906112fb565b60408051601f19818403018152919052600280546001810182556000919091529091507f405787fa12a823e0f2b7631cc41b3ba8828b3321ca811111fa75cd3aa3bb5ace01610b0482826113a9565b50855160005b81811015610b7457600683604051610b229190611468565b9081526020016040518091039020888281518110610b4257610b426112c4565b60209081029190910181015182546001810184556000938452919092200190610b6b90826113a9565b50600101610b0a565b507fb2ba42e9e7a4820aeccb8dfcc91dfb49e92364aa5eda65ca9edb0eedfe284d34326000848a604051610bab9493929190611484565b60405180910390a15050505050505050565b6001546040516000916001600160a01b03169034908381818185875af1925050503d8060008114610c0a576040519150601f19603f3d011682016040523d82523d6000602084013e610c0f565b606091505b5050905080610c535760405162461bcd60e51b815260206004820152601060248201526f4661696c656420746f20646f6e61746560801b60448201526064016104ef565b50565b60606000610c6383610ce9565b600101905060008167ffffffffffffffff811115610c8357610c83610f28565b6040519080825280601f01601f191660200182016040528015610cad576020820181803683370190505b5090508181016020015b600019016f181899199a1a9b1b9c1cb0b131b232b360811b600a86061a8153600a8504945084610cb757509392505050565b60008072184f03e93ff9f4daa797ed6e38ed64bf6a1f0160401b8310610d285772184f03e93ff9f4daa797ed6e38ed64bf6a1f0160401b830492506040015b6d04ee2d6d415b85acef81000000008310610d54576d04ee2d6d415b85acef8100000000830492506020015b662386f26fc100008310610d7257662386f26fc10000830492506010015b6305f5e1008310610d8a576305f5e100830492506008015b6127108310610d9e57612710830492506004015b60648310610db0576064830492506002015b600a83106108c65760010192915050565b60005b83811015610ddc578181015183820152602001610dc4565b50506000910152565b60008151808452610dfd816020860160208601610dc1565b601f01601f19169290920160200192915050565b602081526000610e246020830184610de5565b9392505050565b600082825180855260208501945060208160051b8301016020850160005b83811015610e7b57601f19858403018852610e65838351610de5565b6020988901989093509190910190600101610e49565b50909695505050505050565b602081526000610e246020830184610e2b565b600060208284031215610eac57600080fd5b5035919050565b602080825282518282018190526000918401906040840190835b81811015610ef45783516001600160a01b0316835260209384019390920191600101610ecd565b509095945050505050565b600060208284031215610f1157600080fd5b81356001600160a01b0381168114610e2457600080fd5b634e487b7160e01b600052604160045260246000fd5b604051601f8201601f1916810167ffffffffffffffff81118282101715610f6757610f67610f28565b604052919050565b600082601f830112610f8057600080fd5b813567ffffffffffffffff811115610f9a57610f9a610f28565b610fad601f8201601f1916602001610f3e565b818152846020838601011115610fc257600080fd5b816020850160208301376000918101602001919091529392505050565b60008060408385031215610ff257600080fd5b823567ffffffffffffffff81111561100957600080fd5b61101585828601610f6f565b95602094909401359450505050565b6000806020838503121561103757600080fd5b823567ffffffffffffffff81111561104e57600080fd5b8301601f8101851361105f57600080fd5b803567ffffffffffffffff81111561107657600080fd5b85602082840101111561108857600080fd5b6020919091019590945092505050565b600080604083850312156110ab57600080fd5b82359150602083013567ffffffffffffffff8111156110c957600080fd5b8301601f810185136110da57600080fd5b803567ffffffffffffffff8111156110f4576110f4610f28565b8060051b61110460208201610f3e565b9182526020818401810192908101908884111561112057600080fd5b6020850192505b8383101561116757823567ffffffffffffffff81111561114657600080fd5b6111558a602083890101610f6f565b83525060209283019290910190611127565b80955050505050509250929050565b600181811c9082168061118a57607f821691505b6020821081036111aa57634e487b7160e01b600052602260045260246000fd5b50919050565b600081546111bd81611176565b8085526001821680156111d757600181146111f35761122a565b60ff1983166020870152602082151560051b870101935061122a565b84600052602060002060005b838110156112215781546020828a0101526001820191506020810190506111ff565b87016020019450505b50505092915050565b60018060a01b038316815260606020820152600c60608201526b191a5cd8dbdb9d1a5b9d595960a21b608082015260a06040820152600061127760a08301846111b0565b949350505050565b6001600160a01b038481168252831660208201526060604082018190526000906112ab908301846111b0565b95945050505050565b8183823760009101908152919050565b634e487b7160e01b600052603260045260246000fd5b808201808211156108c657634e487b7160e01b600052601160045260246000fd5b6000845161130d818460208901610dc1565b601760f91b908301908152845161132b816001840160208901610dc1565b601760f91b60019290910191820152835161134d816002840160208801610dc1565b0160020195945050505050565b601f8211156113a457806000526020600020601f840160051c810160208510156113815750805b601f840160051c820191505b818110156113a1576000815560010161138d565b50505b505050565b815167ffffffffffffffff8111156113c3576113c3610f28565b6113d7816113d18454611176565b8461135a565b6020601f82116001811461140b57600083156113f35750848201515b600019600385901b1c1916600184901b1784556113a1565b600084815260208120601f198516915b8281101561143b578785015182556020948501946001909201910161141b565b50848210156114595786840151600019600387901b60f8161c191681555b50505050600190811b01905550565b6000825161147a818460208701610dc1565b9190910192915050565b6001600160a01b03851681526080602082018190526000906114a8908301866111b0565b82810360408401526114ba8186610de5565b905082810360608401526114ce8185610e2b565b97965050505050505056fea2646970667358221220772f9844877eaf69048452fe07de055f2942d4ebc1758470ca12f63704ad3fa264736f6c634300081a0033","linkReferences":{}},"methodIdentifiers":{"add_collaborator(address)":"57f69425","add_version(uint256,string[])":"da71a82b","author()":"a6c3e6b9","collaboratorMap(address)":"aed5474b","collaborators(uint256)":"1dc3a36d","current_version(uint256)":"d82f50a6","dependencyMap(string,uint256)":"932ec411","disable()":"2f2770db","donate()":"ed88c68e","get_collaborators()":"4510084e","get_dependencies(string)":"c3ccd74e","get_name()":"3a525c29","get_versions()":"072831e4","name()":"06fdde03","packageEnabled()":"d06ba78a","versions(uint256)":"87aee00e"},"id":3}