{"abi":[{"type":"function","name":"create_package","inputs":[{"name":"_name","type":"string","internalType":"string"},{"name":"_dependencies","type":"string[]","internalType":"string[]"},{"name":"_description","type":"string","internalType":"string"},{"name":"_cidhash","type":"string","internalType":"string"}],"outputs":[{"name":"","type":"address","internalType":"address"}],"stateMutability":"nonpayable"},{"type":"function","name":"get_packages","inputs":[],"outputs":[{"name":"","type":"address[]","internalType":"address[]"}],"stateMutability":"view"},{"type":"function","name":"packages","inputs":[{"name":"","type":"uint256","internalType":"uint256"}],"outputs":[{"name":"","type":"address","internalType":"address"}],"stateMutability":"view"},{"type":"event","name":"packageCreated","inputs":[{"name":"sender","type":"address","indexed":false,"internalType":"address"},{"name":"packageName","type":"string","indexed":false,"internalType":"string"},{"name":"dependencyList","type":"string[]","indexed":false,"internalType":"string[]"},{"name":"description","type":"string","indexed":false,"internalType":"string"},{"name":"cidhash","type":"string","indexed":false,"internalType":"string"}],"anonymous":false}],"bytecode":{"object":"0x6080604052348015600f57600080fd5b5061228f8061001f6000396000f3fe608060405234801561001057600080fd5b50600436106100415760003560e01c80634cbc268014610046578063c216212a14610076578063dcbec68114610089575b600080fd5b610059610054366004610267565b61009e565b6040516001600160a01b0390911681526020015b60405180910390f35b610059610084366004610373565b610185565b6100916101af565b60405161006d919061038c565b600080328a8a8a8a8a8a8a8a6040516100b690610211565b6100c89998979695949392919061049b565b604051809103906000f0801580156100e4573d6000803e3d6000fd5b50600080546001810182559080527f290decd9548b62a8d60345a988386fc84ba6bc95484008f6362f93160ef3e5630180546001600160a01b0319166001600160a01b0383161790556040519091507fcb506c777d1bf20371418422e9897e1aca48b60295547785c72df9c26a5ccd94906101709032908d908d908d908d908d908d908d908d9061049b565b60405180910390a19998505050505050505050565b6000818154811061019557600080fd5b6000918252602090912001546001600160a01b0316905081565b6060600080548060200260200160405190810160405280929190818152602001828054801561020757602002820191906000526020600020905b81546001600160a01b031681526001909101906020018083116101e9575b5050505050905090565b611d4c8061050e83390190565b60008083601f84011261023057600080fd5b50813567ffffffffffffffff81111561024857600080fd5b60208301915083602082850101111561026057600080fd5b9250929050565b6000806000806000806000806080898b03121561028357600080fd5b883567ffffffffffffffff81111561029a57600080fd5b6102a68b828c0161021e565b909950975050602089013567ffffffffffffffff8111156102c657600080fd5b8901601f81018b136102d757600080fd5b803567ffffffffffffffff8111156102ee57600080fd5b8b60208260051b840101111561030357600080fd5b60209190910196509450604089013567ffffffffffffffff81111561032757600080fd5b6103338b828c0161021e565b909550935050606089013567ffffffffffffffff81111561035357600080fd5b61035f8b828c0161021e565b999c989b5096995094979396929594505050565b60006020828403121561038557600080fd5b5035919050565b602080825282518282018190526000918401906040840190835b818110156103cd5783516001600160a01b03168352602093840193909201916001016103a6565b509095945050505050565b81835281816020850137506000828201602090810191909152601f909101601f19169091010190565b60008383855260208501945060208460051b8201018360005b8681101561048f57838303601f19018852813536879003601e1901811261044057600080fd5b860160208101903567ffffffffffffffff81111561045d57600080fd5b80360382131561046c57600080fd5b6104778582846103d8565b60209a8b019a9095509390930192505060010161041a565b50909695505050505050565b6001600160a01b038a16815260a0602082018190526000906104c09083018a8c6103d8565b82810360408401526104d381898b610401565b905082810360608401526104e88187896103d8565b905082810360808401526104fd8185876103d8565b9c9b50505050505050505050505056fe608060405234801561001057600080fd5b50604051611d4c380380611d4c83398101604081905261002f91610323565b600180546001600160a01b0319166001600160a01b0387161790556000610056858261048e565b506003610063838261048e565b50600180546001600160a01b03166000908152600860209081526040808320805460ff1916851790556004849055600583815560068490556002805495860181559093528051808201909152918252640312e302e360dc1b908201527f405787fa12a823e0f2b7631cc41b3ba8828b3321ca811111fa75cd3aa3bb5ace909101906100ee908261048e565b50825160005b8181101561016257604051640312e302e360dc1b815260079060050190815260200160405180910390208582815181106101305761013061054c565b60209081029190910181015182546001810184556000938452919092200190610159908261048e565b506001016100f4565b5081600960405161017e90640312e302e360dc1b815260050190565b90815260200160405180910390209081610198919061048e565b5050600b805460ff19166001179055506105629350505050565b634e487b7160e01b600052604160045260246000fd5b604051601f8201601f191681016001600160401b03811182821017156101f0576101f06101b2565b604052919050565b600082601f83011261020957600080fd5b81516001600160401b03811115610222576102226101b2565b610235601f8201601f19166020016101c8565b81815284602083860101111561024a57600080fd5b60005b828110156102695760208186018101518383018201520161024d565b506000918101602001919091529392505050565b600082601f83011261028e57600080fd5b81516001600160401b038111156102a7576102a76101b2565b8060051b6102b7602082016101c8565b918252602081850181019290810190868411156102d357600080fd5b6020860192505b838310156103195782516001600160401b038111156102f857600080fd5b610307886020838a01016101f8565b835250602092830192909101906102da565b9695505050505050565b600080600080600060a0868803121561033b57600080fd5b85516001600160a01b038116811461035257600080fd5b60208701519095506001600160401b0381111561036e57600080fd5b61037a888289016101f8565b604088015190955090506001600160401b0381111561039857600080fd5b6103a48882890161027d565b606088015190945090506001600160401b038111156103c257600080fd5b6103ce888289016101f8565b608088015190935090506001600160401b038111156103ec57600080fd5b6103f8888289016101f8565b9150509295509295909350565b600181811c9082168061041957607f821691505b60208210810361043957634e487b7160e01b600052602260045260246000fd5b50919050565b601f82111561048957806000526020600020601f840160051c810160208510156104665750805b601f840160051c820191505b818110156104865760008155600101610472565b50505b505050565b81516001600160401b038111156104a7576104a76101b2565b6104bb816104b58454610405565b8461043f565b6020601f8211600181146104ef57600083156104d75750848201515b600019600385901b1c1916600184901b178455610486565b600084815260208120601f198516915b8281101561051f57878501518255602094850194600190920191016104ff565b508482101561053d5786840151600019600387901b60f8161c191681555b50505050600190811b01905550565b634e487b7160e01b600052603260045260246000fd5b6117db806105716000396000f3fe60806040526004361061012a5760003560e01c8063839d7f11116100ab578063c1bca58e1161006f578063c1bca58e1461032b578063c3ccd74e14610349578063d06ba78a14610369578063d82f50a614610383578063ed88c68e146103b1578063fc3aff23146103b957600080fd5b8063839d7f111461028657806387aee00e1461029b578063932ec411146102bb578063a6c3e6b9146102db578063aed5474b146102fb57600080fd5b80633a525c29116100f25780633a525c29146101eb578063435ad3e0146102005780634510084e14610220578063479ed1e91461024257806357f694251461026657600080fd5b806306fdde031461012f578063072831e41461015a5780631dc3a36d1461017c5780631dd15369146101b45780632f2770db146101d4575b600080fd5b34801561013b57600080fd5b506101446103d9565b6040516101519190611000565b60405180910390f35b34801561016657600080fd5b5061016f610467565b6040516101519190611076565b34801561018857600080fd5b5061019c610197366004611089565b610540565b6040516001600160a01b039091168152602001610151565b3480156101c057600080fd5b506101446101cf366004611159565b61056a565b3480156101e057600080fd5b506101e961058e565b005b3480156101f757600080fd5b50610144610608565b34801561020c57600080fd5b506101e961021b366004611196565b61069a565b34801561022c57600080fd5b5061023561097e565b604051610151919061129e565b34801561024e57600080fd5b50600b5460ff165b6040519015158152602001610151565b34801561027257600080fd5b506101e96102813660046112ea565b6109df565b34801561029257600080fd5b50610144610acc565b3480156102a757600080fd5b506101446102b6366004611089565b610adb565b3480156102c757600080fd5b506101446102d6366004611313565b610b06565b3480156102e757600080fd5b5060015461019c906001600160a01b031681565b34801561030757600080fd5b506102566103163660046112ea565b60086020526000908152604090205460ff1681565b34801561033757600080fd5b506001546001600160a01b031661019c565b34801561035557600080fd5b5061016f610364366004611358565b610b4d565b34801561037557600080fd5b50600b546102569060ff1681565b34801561038f57600080fd5b506103a361039e366004611089565b610c48565b604051908152602001610151565b6101e9610c5f565b3480156103c557600080fd5b506101e96103d43660046112ea565b610cf8565b600080546103e6906113cc565b80601f0160208091040260200160405190810160405280929190818152602001828054610412906113cc565b801561045f5780601f106104345761010080835404028352916020019161045f565b820191906000526020600020905b81548152906001019060200180831161044257829003601f168201915b505050505081565b60606002805480602002602001604051908101604052809291908181526020016000905b828210156105375783829060005260206000200180546104aa906113cc565b80601f01602080910402602001604051908101604052809291908181526020018280546104d6906113cc565b80156105235780601f106104f857610100808354040283529160200191610523565b820191906000526020600020905b81548152906001019060200180831161050657829003601f168201915b50505050508152602001906001019061048b565b50505050905090565b600a818154811061055057600080fd5b6000918252602090912001546001600160a01b0316905081565b8051602081830181018051600982529282019190930120915280546103e6906113cc565b6001546001600160a01b031632146105c15760405162461bcd60e51b81526004016105b890611406565b60405180910390fd5b600b805460ff191690556040517f7f50750ddbb838b5d272e8ee048f2d7fbf7b0194e91b993aae7c26e2f280fd0c906105fe9032906000906114ad565b60405180910390a1565b606060008054610617906113cc565b80601f0160208091040260200160405190810160405280929190818152602001828054610643906113cc565b80156106905780601f1061066557610100808354040283529160200191610690565b820191906000526020600020905b81548152906001019060200180831161067357829003601f168201915b5050505050905090565b3260009081526008602052604090205460ff166106f95760405162461bcd60e51b815260206004820152601860248201527f4e6f7420612076616c696420636f6c6c61626f7261746f72000000000000000060448201526064016105b8565b600b5460ff1661071b5760405162461bcd60e51b81526004016105b8906114f1565b828015806107295750806001145b806107345750806002145b6107785760405162461bcd60e51b8152602060048201526015602482015274496e76616c6964205570646174652053746174757360581b60448201526064016105b8565b836000036107ae576001600460000160008282546107969190611547565b909155505060006005819055600460025b0155610800565b836001036107dc5760016004810160008282546107cb9190611547565b9091555060009050600460026107a7565b83600203610800576001600460020160008282546107fa9190611547565b90915550505b60006108106004825b0154610e45565b9050600061082060046001610809565b9050600061083060046002610809565b905060008383836040516020016108499392919061155a565b60408051601f19818403018152919052600280546001810182556000919091529091507f405787fa12a823e0f2b7631cc41b3ba8828b3321ca811111fa75cd3aa3bb5ace016108988282611607565b50865160005b81811015610908576007836040516108b691906116c6565b90815260200160405180910390208982815181106108d6576108d661151b565b602090810291909101810151825460018101845560009384529190922001906108ff9082611607565b5060010161089e565b508660098360405161091a91906116c6565b908152602001604051809103902090816109349190611607565b507fb2ba42e9e7a4820aeccb8dfcc91dfb49e92364aa5eda65ca9edb0eedfe284d34326000848b60405161096b94939291906116e2565b60405180910390a1505050505050505050565b6060600a80548060200260200160405190810160405280929190818152602001828054801561069057602002820191906000526020600020905b81546001600160a01b031681526001909101906020018083116109b8575050505050905090565b6001546001600160a01b03163214610a095760405162461bcd60e51b81526004016105b890611406565b600b5460ff16610a2b5760405162461bcd60e51b81526004016105b8906114f1565b600a805460018082019092557fc65a7bb8d6351c1cf70c95a316cc6a92839c986682d98bc35f958f4883f9d2a80180546001600160a01b0319166001600160a01b038416908117909155600090815260086020526040808220805460ff191690931790925590517f126c0c1cb9112bc67424ee87f5f11d2f169bf930d54b28db48e81737dec47eb591610ac19132918591611737565b60405180910390a150565b606060038054610617906113cc565b60028181548110610aeb57600080fd5b9060005260206000200160009150905080546103e6906113cc565b81516020818401810180516007825292820191850191909120919052805482908110610b3157600080fd5b906000526020600020016000915091505080546103e6906113cc565b606060078383604051610b6192919061176c565b9081526020016040518091039020805480602002602001604051908101604052809291908181526020016000905b82821015610c3b578382906000526020600020018054610bae906113cc565b80601f0160208091040260200160405190810160405280929190818152602001828054610bda906113cc565b8015610c275780601f10610bfc57610100808354040283529160200191610c27565b820191906000526020600020905b815481529060010190602001808311610c0a57829003601f168201915b505050505081526020019060010190610b8f565b5050505090505b92915050565b60048160038110610c5857600080fd5b0154905081565b6001546040516000916001600160a01b03169034908381818185875af1925050503d8060008114610cac576040519150601f19603f3d011682016040523d82523d6000602084013e610cb1565b606091505b5050905080610cf55760405162461bcd60e51b815260206004820152601060248201526f4661696c656420746f20646f6e61746560801b60448201526064016105b8565b50565b6001546001600160a01b03163214610d225760405162461bcd60e51b81526004016105b890611406565b600b5460ff16610d445760405162461bcd60e51b81526004016105b8906114f1565b600a5460005b81811015610e4057826001600160a01b0316600a8281548110610d6f57610d6f61151b565b6000918252602090912001546001600160a01b031603610e3857600a610d9660018461177c565b81548110610da657610da661151b565b600091825260209091200154600a80546001600160a01b039092169183908110610dd257610dd261151b565b9060005260206000200160006101000a8154816001600160a01b0302191690836001600160a01b03160217905550600a805480610e1157610e1161178f565b600082815260209020810160001990810180546001600160a01b0319169055019055505050565b600101610d4a565b505050565b60606000610e5283610ed8565b600101905060008167ffffffffffffffff811115610e7257610e726110a2565b6040519080825280601f01601f191660200182016040528015610e9c576020820181803683370190505b5090508181016020015b600019016f181899199a1a9b1b9c1cb0b131b232b360811b600a86061a8153600a8504945084610ea657509392505050565b60008072184f03e93ff9f4daa797ed6e38ed64bf6a1f0160401b8310610f175772184f03e93ff9f4daa797ed6e38ed64bf6a1f0160401b830492506040015b6d04ee2d6d415b85acef81000000008310610f43576d04ee2d6d415b85acef8100000000830492506020015b662386f26fc100008310610f6157662386f26fc10000830492506010015b6305f5e1008310610f79576305f5e100830492506008015b6127108310610f8d57612710830492506004015b60648310610f9f576064830492506002015b600a8310610c425760010192915050565b60005b83811015610fcb578181015183820152602001610fb3565b50506000910152565b60008151808452610fec816020860160208601610fb0565b601f01601f19169290920160200192915050565b6020815260006110136020830184610fd4565b9392505050565b600082825180855260208501945060208160051b8301016020850160005b8381101561106a57601f19858403018852611054838351610fd4565b6020988901989093509190910190600101611038565b50909695505050505050565b602081526000611013602083018461101a565b60006020828403121561109b57600080fd5b5035919050565b634e487b7160e01b600052604160045260246000fd5b604051601f8201601f1916810167ffffffffffffffff811182821017156110e1576110e16110a2565b604052919050565b600082601f8301126110fa57600080fd5b813567ffffffffffffffff811115611114576111146110a2565b611127601f8201601f19166020016110b8565b81815284602083860101111561113c57600080fd5b816020850160208301376000918101602001919091529392505050565b60006020828403121561116b57600080fd5b813567ffffffffffffffff81111561118257600080fd5b61118e848285016110e9565b949350505050565b6000806000606084860312156111ab57600080fd5b83359250602084013567ffffffffffffffff8111156111c957600080fd5b8401601f810186136111da57600080fd5b803567ffffffffffffffff8111156111f4576111f46110a2565b8060051b611204602082016110b8565b9182526020818401810192908101908984111561122057600080fd5b6020850192505b8383101561126757823567ffffffffffffffff81111561124657600080fd5b6112558b6020838901016110e9565b83525060209283019290910190611227565b95505050506040850135905067ffffffffffffffff81111561128857600080fd5b611294868287016110e9565b9150509250925092565b602080825282518282018190526000918401906040840190835b818110156112df5783516001600160a01b03168352602093840193909201916001016112b8565b509095945050505050565b6000602082840312156112fc57600080fd5b81356001600160a01b038116811461101357600080fd5b6000806040838503121561132657600080fd5b823567ffffffffffffffff81111561133d57600080fd5b611349858286016110e9565b95602094909401359450505050565b6000806020838503121561136b57600080fd5b823567ffffffffffffffff81111561138257600080fd5b8301601f8101851361139357600080fd5b803567ffffffffffffffff8111156113aa57600080fd5b8560208284010111156113bc57600080fd5b6020919091019590945092505050565b600181811c908216806113e057607f821691505b60208210810361140057634e487b7160e01b600052602260045260246000fd5b50919050565b6020808252600a90820152692737ba1030baba3437b960b11b604082015260600190565b60008154611437816113cc565b808552600182168015611451576001811461146d576114a4565b60ff1983166020870152602082151560051b87010193506114a4565b84600052602060002060005b8381101561149b5781546020828a010152600182019150602081019050611479565b87016020019450505b50505092915050565b60018060a01b038316815260606020820152600c60608201526b191a5cd8dbdb9d1a5b9d595960a21b608082015260a06040820152600061118e60a083018461142a565b60208082526010908201526f141858dad859d948111a5cd8589b195960821b604082015260600190565b634e487b7160e01b600052603260045260246000fd5b634e487b7160e01b600052601160045260246000fd5b80820180821115610c4257610c42611531565b6000845161156c818460208901610fb0565b601760f91b908301908152845161158a816001840160208901610fb0565b601760f91b6001929091019182015283516115ac816002840160208801610fb0565b0160020195945050505050565b601f821115610e4057806000526020600020601f840160051c810160208510156115e05750805b601f840160051c820191505b8181101561160057600081556001016115ec565b5050505050565b815167ffffffffffffffff811115611621576116216110a2565b6116358161162f84546113cc565b846115b9565b6020601f82116001811461166957600083156116515750848201515b600019600385901b1c1916600184901b178455611600565b600084815260208120601f198516915b828110156116995787850151825560209485019460019092019101611679565b50848210156116b75786840151600019600387901b60f8161c191681555b50505050600190811b01905550565b600082516116d8818460208701610fb0565b9190910192915050565b6001600160a01b03851681526080602082018190526000906117069083018661142a565b82810360408401526117188186610fd4565b9050828103606084015261172c818561101a565b979650505050505050565b6001600160a01b038481168252831660208201526060604082018190526000906117639083018461142a565b95945050505050565b8183823760009101908152919050565b81810381811115610c4257610c42611531565b634e487b7160e01b600052603160045260246000fdfea2646970667358221220712f752e1f1645661116a9100be0a6af7ed894afec841b898a2f82d062bff26f64736f6c634300081a0033a26469706673582212203f67a8c52ac92ba70d48c68d975441d5bcc3eb64d67a58d7d7aea1a5af32de8864736f6c634300081a0033","linkReferences":{}},"methodIdentifiers":{"create_package(string,string[],string,string)":"4cbc2680","get_packages()":"dcbec681","packages(uint256)":"c216212a"},"id":3}